:100000000C94E0000C9408010C9408010C94080175
:100010000C9408010C9408010C9408010C9408013C
:100020000C9408010C9408010C9408010C9408012C
:100030000C9408010C9408010C9408010C9408011C
:100040000C94741A0C9408010C94E41A0C94BE1AC3
:100050000C9408010C9408010C9408010C940801FC
:100060000C9408010C94080100407A10F35A00A087
:10007000724E18090010A5D4E80000E87648170071
:1000800000E40B54020000CA9A3B000000E1F505B1
:10009000000080969800000040420F000000A086FB
:1000A00001000000102700000000E803000000002D
:1000B0006400000000000A000000000001000000D1
:1000C00000002C76D888DC674F0823DFC1DFAE59EB
:1000D000E1B1B796E5E3E453C63AE651997696E87E
:1000E000E6C28426EB898C9B62ED407C6FFCEFBC02
:1000F0009C9F40F2BAA56FA5F490055A2AF75C932D
:100100006B6CF9676DC11BFCE0E40D47FEF520E662
:10011000B500D0ED902E0300943577050080841E45
:10012000080000204E0A000000C80C333333330FA0
:10013000986E12831141EF8D2114893BE65516CF3D
:10014000FEE6DB18D1844B381BF77C1D901DA4BB49
:10015000E424203284725E228100C9F124ECA1E5FE
:100160003D2700000000240027002A0000000000B6
:10017000250028002B0000000008000201000003F9
:100180000407000000000000000000000000230041
:1001900026002900040404040404040402020202E8
:1001A000020203030303030301020408102040803A
:1001B000010204081020010204081020161BCE1EA4
:1001C00011241FBECFEFD8E0DEBFCDBF13E0A0E00B
:1001D000B1E0E4E4FCE402C005900D92A635B1075D
:1001E000D9F724E0A6E5B3E001C01D92A63FB2070F
:1001F000E1F710E0CFEDD0E004C02197FE010E94AE
:100200000924CE3DD107C9F70E94D71B0C941526AF
:100210000C9400008CBD9DBD0895FC01818D928DD4
:100220000895089520E3FC0120833296862F82955D
:100230008F706F706A3030F4605D6293682F811147
:10024000F5CF0895695CF9CFCF92DF92EF92FF92DC
:10025000CF93DF93B091CB04A0E08111AB2F8091BD
:10026000CC0490E0880F991FAC0146575E4FC090B8
:10027000D104D090D204E090D304F090D40430E0C4
:1002800020E0FA01C591D491E881B90190E080E0C5
:10029000EB23EA130AC02F5F3F4F6C157D058E05D7
:1002A0009F0578F36FEF7FEFCB01DF91CF91FF9048
:1002B000EF90DF90CF900895833081F028F4813063
:1002C00099F08230A9F008958730A9F08830C9F0FC
:1002D0008430B1F4809180008F7D03C080918000D4
:1002E0008F7780938000089584B58F7784BD0895BB
:1002F00084B58F7DFBCF8091B0008F778093B00065
:1003000008958091B0008F7DF9CF1F93CF93DF9335
:10031000282F30E0F901EA58FE4F8491F901E855A1
:10032000FE4FD491F901EC56FE4FC491CC23A9F0B5
:10033000162F81110E945C01EC2FF0E0EE0FFF1FE1
:10034000E459FE4FA591B4918FB7F894EC91111137
:1003500008C0D095DE23DC938FBFDF91CF911F9132
:100360000895DE2BF8CFCF93DF9390E0FC01E855A2
:10037000FE4F24918C569E4FFC0184918823C9F036
:1003800090E0880F991FFC01EE59FE4FA591B491A2
:10039000FC01E459FE4FC591D49161110DC09FB786
:1003A000F8948C91209582238C938881282328832C
:1003B0009FBFDF91CF910895623051F49FB7F894B9
:1003C0003C91822F809583238C93E8812E2BEFCF55
:1003D0008FB7F894EC912E2B2C938FBFEACF3FB7B9
:1003E000F8948091D0039091D103A091D203B09161
:1003F000D30326B5A89B05C02F3F19F00196A11D78
:10040000B11D3FBFBA2FA92F982F8827BC01CD015E
:10041000620F711D811D911D42E0660F771F881FBD
:10042000991F4A95D1F708958F929F92AF92BF92EC
:10043000CF92DF92EF92FF924B015C010E94EF019D
:100440006B017C010E94EF016C197D098E099F09E7
:10045000683E734081059105A8F321E0821A910856
:10046000A108B10888EEC80E83E0D81EE11CF11C7B
:1004700081149104A104B10429F7FF90EF90DF905B
:10048000CF90BF90AF909F908F9008952FB7F89422
:100490006091CC037091CD038091CE039091CF03F6
:1004A0002FBF0895CF92DF92EF92FF920F931F9389
:1004B000CF93DF93CDB7DEB7C054D1400FB6F894D9
:1004C000DEBF0FBECDBF0E9446020091CD04109149
:1004D000CE042091CF043091D0046B017C01C01A6E
:1004E000D10AE20AF30A97018601003D174021056F
:1004F000310590F48091D504C05CDE4F0FB6F894BE
:10050000DEBF0FBECDBFDF91CF911F910F91FF9046
:10051000EF90DF90CF9008956093CD047093CE0458
:100520008093CF049093D0041092C8041092C70413
:100530001092C6041092C5041092C40462E0809127
:10054000C9040E94B30161E070E080E090E00E9485
:10055000140261E08091C9040E94B30160E08091BF
:10056000C9040E9485018091CA048551823020F51A
:100570008BE291E10197F1F762E08091C9040E945A
:10058000B3018091D60490E08230910538F0880F55
:10059000991F880F991F05970197F1F7F89480E04C
:1005A0000E9424016F3F7F4F8F4F9F4F61F4109245
:1005B000D504789480E0A0CF64E170E080E090E022
:1005C0000E941402D9CF81E00E9424016F3F7F4F27
:1005D0008F4F9F4F61F38E010F5F1F4F6E012FEB07
:1005E000C21A2EEFD20A780180E00E942401F7019E
:1005F000608371838283938381E00E942401F701E9
:100600006483758386839783F8E0EF0EF11CEC1406
:10061000FD0451F7789430E020E0F801C080D180EB
:10062000E280F3804481558166817781FFEFCF16A8
:10063000DF06EF06FF0631F04F3F8FEF58076807E0
:10064000780719F41092D504B5CFF90183E0F59538
:10065000E7958A95E1F7EC53FB4F8081880FC4162C
:10066000D506E606F70610F180832F5F3F4F085F3F
:100670001F4F2832310589F64091C8042091C404E7
:100680008091C504280F3327331F8091C604280F9B
:10069000311D8091C704820F932F911D9927481710
:1006A000190681F681E08093D50426CF8160DCCFE6
:1006B000AF92BF92CF92DF92EF92FF920F931F9370
:1006C000CF93DF936C017B018B01040F151FEB01AE
:1006D0005E01AE18BF08C017D10759F06991D60165
:1006E000ED91FC910190F081E02DC6010995892BD7
:1006F00079F7C501DF91CF911F910F91FF90EF9096
:10070000DF90CF90BF90AF900895FC01538D448D42
:10071000252F30E0842F90E0821B930B541710F0AC
:10072000CF96089501970895FC01918D828D9817B9
:1007300061F0A28DAE0FBF2FB11D5D968C91928D91
:100740009F5F9F73928F90E008958FEF9FEF0895C2
:10075000FC01918D828D981731F0828DE80FF11D8B
:10076000858D90E008958FEF9FEF0895FC01918DA6
:10077000228D892F90E0805C9F4F821B91098F739F
:100780009927089581EF93E00E94B60321E0892B19
:1007900009F420E0822F089580E090E0892B29F071
:1007A0000E94C20381110C9400000895FC01A48DE5
:1007B000A80FB92FB11DA35ABF4F2C91848D90E083
:1007C00001968F739927848FA689B7892C93A08966
:1007D000B1898C91837080648C93938D848D9813F0
:1007E00006C00288F389E02D80818F7D8083089583
:1007F000EF92FF920F931F93CF93DF93EC0181E071
:10080000888F9B8D8C8D98131AC0E889F989808117
:1008100085FF15C09FB7F894EE89FF896083E8894A
:10082000F98980818370806480839FBF81E090E03C
:10083000DF91CF911F910F91FF90EF900895F62EC9
:100840000B8D10E00F5F1F4F0F731127E02E8C8D63
:100850008E110CC00FB607FCFACFE889F9898081A8
:1008600085FFF5CFCE010E94D603F1CFEB8DEC0FC3
:10087000FD2FF11DE35AFF4FF0829FB7F8940B8FC5
:10088000EA89FB8980818062CFCFCF93DF93EC012F
:10089000888D8823B9F0AA89BB89E889F9898C9168
:1008A00085FD03C0808186FD0DC00FB607FCF7CF24
:1008B0008C9185FFF2CF808185FFEDCFCE010E9424
:1008C000D603E9CFDF91CF910895FC0120812EBDA1
:1008D0009B012150310941F051810DB407FEFDCF3C
:1008E0004EB55EBD4193F5CF61507109860F971FDC
:1008F0000DB407FEFDCF2EB5FC0120830895E091D5
:10090000C203F091C30380819091C103892B80833E
:100910000895E091C203F091C30390818091C103D7
:1009200080958923808308958EBD00000DB407FE55
:10093000FDCF8EB50895AF92BF92CF92DF92EF9226
:10094000FF920F931F93CF93DF93CDB7DEB7289716
:100950000FB6F894DEBF0FBECDBF8C017B016A01DC
:100960008091F0038333E1F45801A40EB51EA01664
:10097000B10609F46FC00E94890480EF0E949404BC
:10098000812F0E949404802F0E9494040F5F1F4FB8
:10099000F70181917F010E9494040E947F04E7CFB8
:1009A0005B01A40EB51E8433C1F40E94890419832F
:1009B0000A838D2D80688B83CC8264E070E0CE0149
:1009C00001960E946504AE14BF0409F441C0F7010A
:1009D00081917F010E949404F6CF0E9489040F3F09
:1009E000110509F028F419820A8384E08B830CC076
:1009F00017FD17C019820A8333E0169507953A95BB
:100A0000E1F7007E0C600B8386E0C816D104A0F5E8
:100A1000F701DE011496EA15FB0599F081918D939B
:100A2000FACFC80126E0969587952A95E1F7807E52
:100A300019830A830115104C10F48461D7CF8C619F
:100A4000D5CFB6016D5F7F4FCE0101960E94650440
:100A50000E947F04C60128960FB6F894DEBF0FBE31
:100A6000CDBFDF91CF911F910F91FF90EF90DF905D
:100A7000CF90BF90AF90089563E070E0CE010196F3
:100A80000E946504F70181917F010E949404AE14D5
:100A9000BF04C1F7DDCFCF93DF931F92CDB7DEB791
:100AA000898341E050E0BE016F5F7F4F90E080E0BE
:100AB0000E949B040F90DF91CF91089590E02091C8
:100AC000F003233339F40C96982F990F990F990F4F
:100AD00080E008954896F8CFDA01E091C003F0E095
:100AE000FE2FEE27E60FF71F90E0982F8827A90129
:100AF000BD018E0F9F1F0C949B04CF93DF9300D0FA
:100B0000CDB7DEB779836A8322E030E0AE014F5F74
:100B10005F4F60E170E00E946C050F900F90DF91D5
:100B2000CF910895CF93DF9300D0CDB7DEB779830F
:100B30006A8322E030E0AE014F5F5F4F64E070E017
:100B40000E946C050F900F90DF91CF910895CF9385
:100B5000DF931F92CDB7DEB72091C00330E0322F74
:100B60002227260F371F90E0982F8827498341E0DE
:100B700050E0BE016F5F7F4F820F931F0E949B0466
:100B80000F90DF91CF910895CF93DF931F92CDB750
:100B9000DEB76983DC01ED91FC910280F381E02DE9
:100BA00041E050E0BE016F5F7F4F09950F90DF91EC
:100BB000CF910895FC019485FB018485981303C0AF
:100BC00081E0943008F080E00895CF93DF931F9286
:100BD000CDB7DEB76983DC01ED91FC910280F38132
:100BE000E02D41E050E0BE016F5F7F4F09950F900F
:100BF000DF91CF9108950895FF920F931F93CF93A4
:100C0000DF93EB01FC01178A168A2A81211109C0A2
:100C10002B81211106C02C81211103C02D8122239B
:100C200001F141155105E9F08A01FC01F08C80E5E4
:100C300091E00E940A01AE014E5F5F4F24E030E078
:100C40006CE070E08F2D0E946C05B8018F2D0E9422
:100C50007D0581E090E0DF91CF911F910F91FF9092
:100C6000089580E0F7CFFC01848595850895FC0107
:100C70008489958908952DE931E0FC013183208331
:100C8000FB014089518962897389FC014283538346
:100C9000648375830895DC01ED91FC91048CF58DDE
:100CA000E02D099490E080E00895FC017687658747
:100CB0000895DC01ED91FC9102A0F3A1E02D0995CE
:100CC00091E089270895862F089581E08627089569
:100CD00021E0FC018485843008F020E0822F089513
:100CE0000895FB0101900020E9F73197AF01461B01
:100CF000570BDC01ED91FC910280F381E02D09940A
:100D00006FE971E081EF93E00C947106CF93DF936C
:100D1000FC01448155816081718181EF93E00E94E3
:100D20005803EC010E9480068C0F9D1FDF91CF912C
:100D300008958F929F92AF92BF92EF92FF920F937E
:100D40001F93CF93DF93CDB7DEB7A1970FB6F8947B
:100D5000DEBF0FBECDBF7C01FA01CB0119A222304C
:100D600008F42AE08E010F5D1F4F822E912CB12CCA
:100D7000A12CBF01A50194010E946423F901CA01BD
:100D80006A300CF5605DD8016E938D01232B242B06
:100D9000252B79F790E080E0109721F0BD01C70185
:100DA0000E947106A1960FB6F894DEBF0FBECDBFAC
:100DB000DF91CF911F910F91FF90EF90BF90AF9077
:100DC0009F908F900895695CDECF8F929F92AF9233
:100DD000BF92CF92DF92EF92FF920F931F93CF9328
:100DE000DF937C01EB016C0182E0C80ED11C47014E
:100DF000E5E08E0E911C10E000E0F60141916F01DC
:100E000050E070E060E02AE0CE010E9499065C01AB
:100E1000E881F9810190F081E02D6EE2CE01099523
:100E20008A0D9B1D080F191FC814D90431F7F7014B
:100E3000458150E070E060E02AE0CE010E94990612
:100E4000800F911FDF91CF911F910F91FF90EF9035
:100E5000DF90CF90BF90AF909F908F900895CF93E9
:100E6000DF93BC0181EF93E00E947106EC010E94C8
:100E700080068C0F9D1FDF91CF910895CF93DF9354
:100E8000EC0188819981009711F00E94AB241982AE
:100E900018821D821C821B821A82DF91CF910895D5
:100EA000FC0180819181009711F00C94AB2408958E
:100EB0000C94AB240F931F93CF93DF93EC018881A5
:100EC0009981009759F02A813B812617370730F026
:100ED00081E0DF91CF911F910F9108958B016F5F9A
:100EE0007F4F0E943425009759F0998388831B8394
:100EF0000A832C813D81232B59F7FC011082E8CF16
:100F000080E0E7CFEF92FF920F931F93CF93DF9391
:100F10006115710541F480E0DF91CF911F910F9130
:100F2000FF90EF90089541155105B1F07B01EC0160
:100F30000C811D81040F151FB8010E945A078823D8
:100F400051F3288139818C819D81B701820F931FD4
:100F50000E940E261D830C8381E0DECFCF93DF93AA
:100F6000EC01FB0101900020E9F73197AF01461B2E
:100F7000570B0E948207811103C0CE010E943E07D9
:100F8000CE01DF91CF910895CF93DF93EC01FB0168
:100F900044815581608171810E948207811103C063
:100FA000CE010E943E07CE01DF91CF910895EF92CE
:100FB000FF920F931F93CF93DF93EC017B018A0184
:100FC000BA010E945A0781110BC0CE010E943E0750
:100FD000CE01DF91CF911F910F91FF90EF90089577
:100FE0001D830C83B701888199810E940E26F0CF62
:100FF000EF92FF920F931F93CF93DF93CDB7DEB79E
:1010000062970FB6F894DEBF0FBECDBF8C01CB0147
:10101000F8011182108213821282158214824AE032
:101020009E012F5F3F4F7901B9010E94941FF70184
:1010300001900020E9F73197AF014E195F09B70120
:10104000C8010E94D70762960FB6F894DEBF0FBEA4
:10105000CDBFDF91CF911F910F91FF90EF90089539
:10106000FC01118210821382128215821482FB010C
:1010700001900020E9F73197AF01461B570B0C9404
:10108000D707DC018DE991E08D939D9384E0FB010E
:1010900001900D928A95E1F70895AF92BF92CF9299
:1010A000DF92EF92FF920F931F93CF93DF9300D0C5
:1010B00000D0CDB7DEB78C016B017A018091F003CF
:1010C0008333E9F45B016801C40ED51EC016D10656
:1010D000A9F10E9489048FE00E949404812F0E944C
:1010E0009404802F0E9494040F5F1F4F80E00E94A1
:1010F0009404F50181935F010E947F04E7CF84335C
:1011000069F50E94890419830A838F2D8F778B8359
:10111000EC8264E070E0CE0101960E946504A701B4
:1011200070E060E0C6010E940726E114F10421F09E
:10113000B701C6010E9465040E947F04C7010F9099
:101140000F900F900F90DF91CF911F910F91FF9013
:10115000EF90DF90CF90BF90AF9008950E948904E8
:101160000F3F110509F030F419820A831B8263E0F6
:1011700070E0D1CF17FD0BC019820A8333E01695BA
:1011800007953A95E1F7007E08600B83F0CFC80120
:1011900026E0969587952A95E1F7807E19830A8344
:1011A0000115104C18F480618B83E1CF8861FCCF6E
:1011B000CF93DF931F92CDB7DEB72091C00330E00D
:1011C000322F2227260F371F90E0982F882741E0E3
:1011D00050E0BE016F5F7F4F820F931F0E944D084A
:1011E00089810F90DF91CF910895CF93C82F462F1B
:1011F00061E070E00E94A70561E070E08C2F0E9422
:10120000D8088111F9CFCF910895CF93C82F80E5E9
:1012100091E00E940A0168E070E08C2FCF910C945D
:10122000F508CF93C82F80E591E00E940A0160E1A4
:1012300070E08C2FCF910C94F508CF93DF93EC01E5
:10124000888D843020F40E94110984E0888FDF911A
:10125000CF910895CF93C82F80E591E00E940A01B5
:1012600063E070E08C2FCF910C94D808CF93DF937C
:10127000EC018C858430D0F40E942A09843189F0F5
:10128000882379F0883169F021E08C3159F4E881C4
:10129000F9810084F185E02DCE01099521E0892BAB
:1012A00009F420E0822FDF91CF91089580E0FBCFF9
:1012B000CF92DF92EF92FF92CF93DF93EC018C8578
:1012C000843068F40E9405090E9446026B017C018B
:1012D0008C850E942A09811109C084E08C87DF91E6
:1012E000CF91FF90EF90DF90CF90089561E070E094
:1012F00080E090E00E9414020E944602AB01BC0113
:101300004C195D096E097F098D859E85B0E0A0E0CE
:10131000481759076A077B07D8F28C850E94110984
:10132000DCCFCF93FC01C08D80E591E00E940A01E3
:1013300060E270E08C2F0E94F50862E070E08C2F74
:101340000E94D80884FD16C062E070E08C2F0E94D5
:10135000D80883FF0AC048E162E070E08C2F0E9449
:10136000A70580E090E0CF91089580E591E00E948C
:101370000A01E3CF40E162E070E08C2F0E94A705F4
:1013800081E0F0CFCF93DF931F92CDB7DEB741E07E
:1013900050E0BE016F5F7F4F90E080E00E944D08FB
:1013A00089810F90DF91CF910895CF93DF93C4E1AE
:1013B000D0E00E94C209882361F061E070E080E023
:1013C00090E00E9414022197A1F780E0DF91CF9175
:1013D000089581E0FBCF1F93CF93DF931F92CDB78A
:1013E000DEB7182F80E591E00E940A01812F0E944C
:1013F0005E0527E0129FF0011124EC52FC4F228180
:101400003381377041E050E0BE016F5F7F4F820F44
:10141000931F0E944D0889810F90DF91CF911F91FA
:101420000895FC01808D843040F4218D328D232B72
:1014300021F00E94EB0990E008958FEF9FEF08954F
:10144000CF93DF93FC012485243028F08FEF9FEFAA
:10145000DF91CF910895EC010190F081E02D00849F
:10146000F185E02D0995892B89F38C850E94EB0984
:1014700090E0EECFDA01E091C003F0E0FE2FEE271E
:10148000E60FF71F90E0982F8827A901BD018E0F66
:101490009F1F0C944D088F929F92AF92BF92CF9254
:1014A000DF92EF92FF921F93CF93DF93CDB7DEB71A
:1014B0002C970FB6F894DEBF0FBECDBF2091F0037E
:1014C00014E0222339F16B017C0180E591E00E9458
:1014D0000A015E0127E0A20EB11C450110E063E0A5
:1014E00070E0812F0E94D808F40181934F01882376
:1014F00049F11F5F143099F710E0F50181915F0108
:101500008D31D9F08831C9F08A518230B0F01F5F37
:10151000143099F7812F2C960FB6F894DEBF0FBECA
:10152000CDBFDF91CF911F91FF90EF90DF90CF90D3
:10153000BF90AF909F908F90089560E170E0812FF1
:101540000E94F508A12EB12C83EE93E00197F1F7EC
:1015500042E870E060E0812F0E94A7054FEF62E053
:1015600070E0812F0E94A705B601C114D10491F447
:101570008091190190911A0101968115F0EC9F0755
:1015800008F45CC090931A018093190160911901CD
:1015900070911A01812F0E94920586E0E5E2F1E048
:1015A000DE01119601900D928A95E1F7F701838192
:1015B0008F778C8384818D8385818E83A7014E5F95
:1015C0005F4F24E030E06CE070E0812F0E946C05FA
:1015D000B601812F0E947D0526E030E0AE014F5F0D
:1015E0005F4F66E070E0812F0E946C0561E070E063
:1015F000812F0E94F50827E02A9DC0012B9D900DA8
:1016000011249C012C523C4F7901F9011182108266
:1016100022E030E0AE01455F5F4F68E270E0812F6D
:101620000E943A0A8B859C85982789279827F7017D
:10163000938382831682158214826CCF80E090ECB3
:10164000A1CFCF92DF92EF92FF920F931F93CF9390
:10165000DF9300D000D000D0CDB7DEB78C016B0196
:101660007A01FC01808D843010F40E9411098DE90B
:1016700091E09A838983F60182819381A481B58167
:101680008B839C83AD83BE83B701CE0101960E94FC
:101690004B0AF801808F8430A0F4F586E486128E20
:1016A000118E81E026960FB6F894DEBF0FBECDBF37
:1016B000DF91CF911F910F91FF90EF90DF90CF902E
:1016C000089580E0EFCFAF92BF92CF92DF92EF927A
:1016D000FF920F931F93CF93DF9300D000D000D0E1
:1016E000CDB7DEB7082F6B0180E591E00E940A01BB
:1016F0009E012F5F3F4F7901590110E063E070E0D8
:10170000812F0E94D808F50181935F01882341F160
:101710001F5F143099F710E0F70181917F018D313F
:10172000D1F08831C1F08A518230A8F01F5F1430A7
:1017300099F7812F26960FB6F894DEBF0FBECDBF66
:10174000DF91CF911F910F91FF90EF90DF90CF909D
:10175000BF90AF90089560E170E0812F0E94F5087E
:10176000E12EF12C83EE93E00197F1F7402F70E02A
:1017700060E0812F0E94A7054FEF62E070E0812FAB
:101780000E94A705B601CD2889F480911901909196
:101790001A0101968115F0EC9F0798F190931A01B8
:1017A000809319016091190170911A01812F0E9493
:1017B000920561E070E0812F0E94F50827E02E9DE0
:1017C000C0012F9D900D11249C012C523C4F79019A
:1017D000F9011182108222E030E0AE014B5F5F4FD1
:1017E00068E270E0812F0E943A0A8D819E819827DD
:1017F00089279827F70193838283168215821482A2
:1018000098CF80E090ECCACFCF92DF92EF92FF9218
:101810001F93CF93DF93EC017B016A018C858430A9
:1018200048F40E942A09882319F08C850E94050932
:1018300084E08C87F70182819381A481B581009730
:10184000A105B10551F490E080E0DF91CF911F91A7
:10185000FF90EF90DF90CF9008958F3F9F4FAF4F55
:10186000BF4F89F38091F003811103C084E08C871E
:10187000EACF70E060E081E20E94630B182F8C8752
:10188000843008F780E591E00E940A01A7014E5FCD
:101890005F4F24E030E06CE070E0812F0E946C0527
:1018A000B601812F0E947D0564E070E0812F0E94C7
:1018B000F5080E9446026B017C018C850E942A0972
:1018C000873109F18C31F9F0882309F4BCCF0E94EB
:1018D0004602AB01BC014C195D096E097F098D857B
:1018E0009E85B0E0A0E084179507A607B70738F0FB
:1018F00061E070E080E090E00E941402DECF8C8511
:101900000E941109B3CF81E090E09FCF0F931F9306
:10191000CF93DF93EC018B01888D843010F40E940B
:1019200011098091F003811107C094E0988FDF9135
:10193000CF911F910F910895B80182E00E94630B2F
:10194000888F843030F41D870C871A8E198E81E0C1
:10195000EECF80E0ECCF7F928F929F92AF92BF92BA
:10196000CF92DF92EF92FF920F931F93CF93DF936B
:1019700000D0CDB7DEB7782E8B014A01590122E0A5
:1019800030E0AE014F5F5F4F64E270E00E943A0AC0
:10199000E980FA80FE24EF24FE24E00EF11E970178
:1019A00037704091F003072D10E0433309F042C037
:1019B000085F1F4F102F0027110F110F110FC901C2
:1019C000800F911F4733C9F1A9014A0D5B1D4130BA
:1019D000584098F160E078E06B01C21AD30AA60182
:1019E000B4010E949B04A5014C195D09B4016C0D62
:1019F0007D1DC8010E949B04EA0CFB1CF982EA824F
:101A000022E030E0AE014F5F5F4F64E270E0872D6F
:101A10000E946C050F900F90DF91CF911F910F9155
:101A2000FF90EF90DF90CF90BF90AF909F908F90FE
:101A30007F900895005F1F4FBDCFA501B401DACF9D
:101A4000EF92FF921F93CF93DF9300D0CDB7DEB715
:101A5000182F22E030E0AE014F5F5F4F60E270E090
:101A60000E943A0AE980FA80FE24EF24FE2422E054
:101A700030E0AE014F5F5F4F60E270E0812F0E9467
:101A80003A0A89819A81982789279827E816F906C2
:101A900089F487E0189FF0011124EC52FC4FF58285
:101AA000E482C7010F900F90DF91CF911F91FF90BB
:101AB000EF9008957C01DBCF1F93CF93DF93182F16
:101AC00080E591E00E940A01812F0E94200DEC0127
:101AD00063E070E0812F0E94D808873121F08C31BB
:101AE00011F0D0E0C0E0CE01DF91CF911F910895B9
:101AF000CF93DF93EC018C85843060F40E942A0937
:101B0000873111F08C3131F48C850E945C0D811588
:101B1000984088F3DF91CF910895FC01848584304B
:101B200010F40C945C0D90E080E008959F92AF92C9
:101B3000BF92CF92DF92EF92FF920F931F93CF93BA
:101B4000DF938C015B01942EE52EFC01C688D788BB
:101B5000F08C80E591E00E940A018F2D0E94200DFB
:101B6000C92DDE2D8C179D0708F4EC019E01A501FF
:101B7000B6018F2D0E94AB0CF801868997898C0FD6
:101B80009D1F978B868BCE01DF91CF911F910F9177
:101B9000FF90EF90DF90CF90BF90AF909F9008950F
:101BA0008F929F92AF92BF92CF92DF92EF92FF926D
:101BB0000F931F93CF936C015B018A01FC01C485D5
:101BC000C430F0F57A014130584018F0E12C88E03B
:101BD000F82E80E591E00E940A018C2F0E94200DD2
:101BE0004C0163E070E08C2F0E94D808873111F01F
:101BF0008C3149F58E149F0460F380E591E00E94DA
:101C00000A019701A50170E060E08C2F0E94AB0CE7
:101C100060E270E08C2F0E94F50862E070E08C2F8B
:101C20000E94D80884FD17C063E070E08C2F0E94EA
:101C3000D80881110BC081E090E0F6019383828384
:101C400010E000E010C0F12CE12CD7CF80E591E04E
:101C50000E940A01E2CF40E162E070E08C2F0E9416
:101C6000A705EF2841F3C801CF911F910F91FF9075
:101C7000EF90DF90CF90BF90AF909F908F9008959E
:101C8000FF920F931F93CF93DF9300D0CDB7DEB7B2
:101C9000F82E22E030E0AE014F5F5F4F66E270E069
:101CA0000E943A0A09811A8110270127102722E091
:101CB00030E0AE014F5F5F4F66E270E08F2D0E9413
:101CC0003A0A89819A81982789279827081719073E
:101CD00049F4C8010F900F90DF91CF911F910F91A0
:101CE000FF9008958C01E3CF1F93CF93DF93182FBC
:101CF00087E0189FE0011124CC52DC4F8881998144
:101D0000009761F480E591E00E940A01812F0E9412
:101D1000400E2E81821B910999838883DF91CF9198
:101D20001F910895FC018485843010F40C94740E86
:101D300090E080E008954F925F927F928F929F9201
:101D4000AF92BF92CF92DF92EF92FF920F931F93C9
:101D5000CF93DF9300D0CDB7DEB7782E6B014A0169
:101D6000A82EB12C27E0829FC0011124FC01EC5267
:101D7000FC4F7F010081118180E591E00E940A0102
:101D80000815190554F4872D0E94400EF70126818D
:101D90008C01021B1109118300830115110529F51E
:101DA00063E070E0872D0E94D808843159F08823C1
:101DB00049F001E010E08C3111F410E000E01195E1
:101DC00001951109C8010F900F90DF91CF911F91DC
:101DD0000F91FF90EF90DF90CF90BF90AF909F90CA
:101DE0008F907F905F904F900895801691060CF42D
:101DF000840187E08A9DF0018B9DF00D1124EC5247
:101E0000FC4FE280F380C114D10451F12701F7E0C7
:101E10005F22872D0E945E05840D951D2091F003A1
:101E2000273309F453C09801240D351D2130384063
:101E300008F44CC020E038E0490184189508A4015A
:101E4000B6010E944D082601480C591C6801C818AB
:101E5000D908872D0E945E05A601B2010E944D0897
:101E6000E00EF11E87E08A9DF0018B9DF00D11249C
:101E7000EC52FC4FF382E28220813181201B310B36
:101E8000318320838681800F912F911D8A3F910598
:101E900010F4232BF1F487E08A9DF0018B9DF00D67
:101EA0001124EC52FC4F1682F982EA8222E030E0E3
:101EB000AE014F5F5F4F68E270E0872D0E946C05B6
:101EC00060E470E0872D0E94F5087CCFA801B60180
:101ED000C5CF868377CFCF93DF93FC01218D328DE1
:101EE0002115310529F48FEF9FEFDF91CF910895F0
:101EF000EC01808D4217530708F0A9010E949B0E48
:101F00001816190684F7298D3A8D281B390B3A8F3C
:101F1000298FEBCF0F931F93CF93DF931F92CDB7F2
:101F2000DEB7FC01218D328D232B41F48FEF9FEF23
:101F30000F90DF91CF911F910F9108958C0141E097
:101F400050E0BE016F5F7F4FFC01808D0E949B0EB1
:101F5000181619065CF7F801818D928D0197928F02
:101F6000818F898190E0E4CF0F931F93CF93DF930C
:101F7000CDB7DEB728970FB6F894DEBF0FBECDBF42
:101F80008C01D80159964D915C915A974115510594
:101F900051F0ED91FC91048CF58DE02D70E060E046
:101FA000C8010995EECFF801808D0E94740E892B2F
:101FB000B1F148E050E0BE016F5F7F4FD801589605
:101FC0008C910E949B0E18161906F4F4D8015096B5
:101FD00084E0FE01319601900D928A95E1F78D81A2
:101FE00090E0982F88272E81820F911DF801958B04
:101FF000848B8F81282F30E0322F22278885820F13
:10200000932F911D928F818F28960FB6F894DEBF83
:102010000FBECDBFDF91CF911F910F91089590E03A
:1020200080E0F2CF4F925F926F927F928F929F9259
:10203000AF92BF92CF92DF92EF92FF920F931F93D6
:10204000CF93DF93CDB7DEB763970FB6F894DEBFBB
:102050000FBECDBF7C016B013A01FB0120E090E097
:1020600080E06AE03191332309F461C040ED430F11
:102070004A3008F04DC0689FA001699F500D11249F
:10208000CA01C097830F911D37FD9A958F3F910527
:1020900049F340F3F7014281538164817581809156
:1020A000BA049091BB04A091BC04B091BD04481740
:1020B00059076A077B0709F40DC28701085F1F4FA4
:1020C0000E9446026F7077277C5FC8010E94860CD1
:1020D000813009F004C28DE991E09A838983F70188
:1020E00082819381A481B5818B839C83AD83BE83E0
:1020F00045E350E0BE016F5F7F4FC8010E94FC05C1
:10210000892BA9F5D12CC12CC8010E941D0917C02B
:102110003E3209F0BFCF233009F4BCCFD301A20F68
:10212000B11D12968C932F5F90E080E09BCF2330FF
:1021300009F0B0CFF3018583CC24C394D12CC60120
:1021400063960FB6F894DEBF0FBECDBFDF91CF917F
:102150001F910F91FF90EF90DF90CF90BF90AF90C5
:102160009F908F907F906F905F904F9008950E9406
:102170004602F7017783668342E050E0B7016A5F69
:102180007F4FC8010E94960D81E090E09A83898379
:1021900042E050E0BE016F5F7F4FC8010E94960D84
:1021A00080E091E09A83898342E050E0BE016F5F56
:1021B0007F4FC8010E94960D1A82198242E050E0BA
:1021C000BE016F5F7F4FC8010E94960D42E050E054
:1021D000BE016F5F7F4FC8010E94960D42E050E044
:1021E000BE016F5F7F4FC8010E94960D5601F60138
:1021F0008081882301F16501F60181912F018823F7
:1022000011F08E32B1F446018A189B081814190493
:1022100074F48D8641E050E0BE01635F7F4FC801DA
:102220000E94960DA401B501C8010E94960D5201AD
:10223000DECF6201E1CF1D8641E050E0BE01635F69
:102240007F4FC8010E94960DC12CDD24D394DA8201
:10225000C98242E050E0BE016F5F7F4FC8010E941B
:10226000960DDA82C98242E050E0BE016F5F7F4F77
:10227000C8010E94960DC8010E949109892B09F49A
:1022800041CFF3E0AF2EB12C230122E0420E511CCE
:10229000D4C0F7014281538164817581808D918D15
:1022A000A28DB38D481759076A077B0709F008C14B
:1022B000848D958DC59709F003C181A192A15DEF31
:1022C000C52EDD24DA940C970CF4ADC04CE050E040
:1022D000BE016F5F7F4FC8010E946B0F8B819C8195
:1022E0009827892798279A8B898BF70146815781F0
:1022F00029813A814217530709F0E7C097FFE5C0EB
:102300008F7092703BEFC32EDD24DA94892B09F095
:102310008AC06F8078847624672476242AEFC22EC0
:10232000DD24DA946114710409F47DC0D12CC12C30
:102330008D819E81982789279827C816D906F8F499
:1023400041E050E0BE01635F7F4FC8010E946B0F08
:102350004D85442331F050E070E060E0C8010E94F8
:102360006B0F8D858111ECCF44E050E070E060E0B0
:10237000C8010E946B0FFFEFCF1ADF0AD9CF912C53
:10238000812C41E050E0BE016D5E7F4FC8010E948C
:102390006B0F4B89842F807C09F06CC0442331F093
:1023A00050E070E060E0C8010E946B0F8B898111E2
:1023B000E8CF42E050E0BE01615F7F4FC8010E945C
:1023C0006B0F42E050E0BE01635F7F4FC8010E9487
:1023D0006B0F44E050E070E060E0C8010E946B0FBA
:1023E00042E050E0BE016F5E7F4FC8010E946B0F5C
:1023F0008F85988949895A898115914009F043C090
:10240000CD84DE84DC24CD24DC2481E0C816D10414
:10241000D1F54115544009F04AC044E050E0B20102
:10242000C8010E946B0F21E0A21AB10809F46CCE1A
:10243000FFEFCF16DF0609F067CE0E9446023B0190
:102440004C01C8010E94B40F181619060CF421CFD4
:102450000E9446026619770988099909693873410B
:102460008105910548F562E370E080E090E00E940C
:102470001402E7CF41E050E070E060E0C8010E9444
:102480006B0F1B8A93CF54274527542770E060E0D9
:10249000C8010E946B0FFFEF8F1A9F0A681479041E
:1024A00009F06FCF96EFC92EDD24DA94BCCFE7EFA9
:1024B000CE2EDD24DA94B7CFCC24CA94DC2CB3CF53
:1024C0006EEFC62EDD24DA94AECF4CEFC42EDD24A1
:1024D000DA94A9CF8EEFC82EDD24DA9430CED12C39
:1024E000C12C2DCECF92DF92EF92FF920F931F93CC
:1024F000CF93DF93CDB7DEB7AF970FB6F894DEBFBB
:102500000FBECDBF7C016A010DE911E01A8309837A
:102510001C861B8688EE93E0A0E0B0E08D879E8746
:10252000AF87B88B8FE291E09A878987188F0F8BDE
:10253000198E1A8E1B8E1C8E84E089A31BA70AA7F6
:102540001CA61DA61EA61FA68091AE049091AF04E6
:10255000A091B004B091B1048EA39FA3A8A7B9A77E
:102560008B839C83AD83BE8318861F82AE01465D3C
:102570005F4FCE0101960E94121081309105B1F497
:10258000D701ED91FC910488F589E02D1DA30CA3E2
:102590008CA59DA5AEA5BFA58EA39FA3A8A7B9A7EF
:1025A000A601BE016C5D7F4FC7010995AF960FB6BE
:1025B000F894DEBF0FBECDBFDF91CF911F910F9179
:1025C000FF90EF90DF90CF900895CF92DF92EF923F
:1025D000FF920F931F93CF93DF93CDB7DEB7AF97E3
:1025E0000FB6F894DEBF0FBECDBF8C016B017A0130
:1025F0008DE991E09A8389831B821C821D821E8251
:102600001C861B8648EE53E060E070E04D875E87D5
:102610006F87788B2FE231E03A872987988F8F8BED
:10262000198E1A8E1B8E1C8E24E029A39BA78AA7C5
:102630001CA61DA61EA61FA6D8011C968C91843030
:1026400060F40E942A09882321F0F80184850E9401
:10265000050984E0D8011C968C938091AE0490917A
:10266000AF04A091B004B091B1048EA39FA3A8A71A
:10267000B9A78B839C83AD83BE8318861F82AE016E
:10268000465D5F4FB601CE0101960E941210009781
:10269000C1F0D801ED91FC910684F785E02D8DE91C
:1026A00091E09DA38CA38CA59DA5AEA5BFA58EA3EF
:1026B0009FA3A8A7B9A7A701BE016C5D7F4FC80162
:1026C0000995AF960FB6F894DEBF0FBECDBFDF9170
:1026D000CF911F910F91FF90EF90DF90CF900895D1
:1026E000CF93DF931F92CDB7DEB741E050E0BE013C
:1026F0006F5F7F4FFC0184850E949B0E18161906A0
:1027000034F4898190E00F90DF91CF9108958FEF9D
:102710009FEFF9CFFC018485843010F40C949B0E5C
:1027200090E080E008950F931F93CF93DF9300D044
:10273000CDB7DEB7FC0124852430E0F48C0180E5C0
:1027400091E00E940A0122E030E0AE014F5F5F4F4E
:1027500060E170E0F80184850E943A0A89819A81DB
:102760009827892798270F900F90DF91CF911F917D
:102770000F91089590E080E0F6CFEF92FF920F93D3
:102780001F93CF93DF9300D000D0CDB7DEB78C017D
:102790007B01FB0184858430A8F08DE991E0F8018C
:1027A000918380831282138214821582C8010F9054
:1027B0000F900F900F90DF91CF911F910F91FF908D
:1027C000EF90089580E591E00E940A0124E030E056
:1027D000AE014F5F5F4F6CE070E0F70184850E94AF
:1027E0003A0ABE016F5F7F4FC8010E944108DECFE9
:1027F0000F931F93CF93DF9300D0CDB7DEB7FC01CB
:1028000024852430E0F48C0180E591E00E940A01E7
:1028100022E030E0AE014F5F5F4F64E070E0F8010E
:1028200084850E943A0A89819A8198278927982766
:102830000F900F90DF91CF911F910F91089590E02D
:1028400080E0F6CF7F928F929F92AF92BF92CF920D
:10285000DF92EF92FF920F931F93CF93DF93CDB749
:10286000DEB7A6970FB6F894DEBF0FBECDBF8C01C2
:10287000762E942E852E20E2A22ECE0101967C018A
:10288000DC01EA2D1D92EA95E9F76801F3E4CF0E29
:10289000D11C8DE991E09AA389A38FEF8BA38CA320
:1028A0008DA38EA343E450E0BE016F5D7F4FC60150
:1028B0000E94FC05019609F4BFC081E089838A83E8
:1028C00086E0B82EBB821C82D80114966D917D9152
:1028D0008D919C9117970E9402246D837E838F8334
:1028E000988789869A8680E890E09C878B874CE160
:1028F00050E0B701C6010E94960DFE0137968AE1AD
:10290000DF011D928A95E9F74801B8E08B0E911C12
:10291000F401D70101900D92BA94E1F740E150E043
:10292000B701C6010E94960DF7011192AA94E9F72A
:1029300096E0A92EB12C40E250E0B701C6010E94FA
:10294000960DF1E0AF1AB108B1F783E6898392E8FA
:102950009A8393E59B838C8385E38D8381E08E83CB
:102960007F829DE3988797E099878A8786E0F401C4
:10297000DE011B9601900D928A95E1F78CE0898B20
:102980008A8B62EA71E0CE0143960E940E26D8013E
:102990001B966C91CE0149960E941201F801648544
:1029A000CE014B960E941201D8011D966C91CE016A
:1029B0004D960E9412014EE150E0B701C6010E94FF
:1029C000960DB3E07B121EC082E3898384E08A8384
:1029D000F80196859B8397859C8390899D83918937
:1029E0009E8396E39F838887828D8987838D8A87DC
:1029F000848D8B87858D8C874CE050E0B701C601B4
:102A00000E94960D87E3898386E08A8391E09B8309
:102A100093E09C838D838FE08E838AE38F838BE3A7
:102A200088878FEF898749E050E0B701C6010E948F
:102A3000960DC6010E949109A6960FB6F894DEBFC6
:102A40000FBECDBFDF91CF911F910F91FF90EF90FF
:102A5000DF90CF90BF90AF909F908F907F90089520
:102A60003F924F925F926F927F928F929F92AF921E
:102A7000BF92CF92DF92EF92FF920F931F93CF936B
:102A8000DF93CDB7DEB7EA970FB6F894DEBF0FBE7F
:102A9000CDBF7C012A013B0169010E9446024B0126
:102AA0005C0187010D5B1F4FC8010E94B40F18160F
:102AB00019069CF00E944602681979098A099B0947
:102AC000461657066806790608F466C162E370E0A8
:102AD00080E090E00E941402E7CF42E250E0BE01A5
:102AE0006F5F7F4FC8010E946B0F89818230D1F0E8
:102AF000312C832DEA960FB6F894DEBF0FBECDBF02
:102B0000DF91CF911F910F91FF90EF90DF90CF90C9
:102B1000BF90AF909F908F907F906F905F904F90FD
:102B20003F900895F801848995898334910501F7D0
:102B30006D817E818F8198850E9402244B015C010A
:102B4000F60180829182A282B38246E050E0B70112
:102B5000685F7F4FCE014D960E94F125892B41F68B
:102B6000F70180819181A281B38188169906AA0616
:102B7000BB0608F4BDCF84819581A681B7818815F5
:102B80009905AA05BB0508F4B3CF89899A89AB8951
:102B9000BC8986879787A08BB18B4EEC50E070E0A4
:102BA00060E0C8010E946B0F312CC701829698AB80
:102BB0008FA7F701B696FAABE9AB08969CAB8BAB47
:102BC00067019AE1C90ED11CBD96FEABEDABC70102
:102BD000429698AF8FABFD97FAAFE9AF4701FEE1A0
:102BE0008F0E911CF801818D928D181619060CF02C
:102BF00080CFC8010E948A0F8333910509F4B2C0C7
:102C000014F58130910509F464C044F4892B51F323
:102C1000C8010E948A0FAC01552775C08330910509
:102C200009F462C00697A1F7C8010E948A0FB82E66
:102C300044E050E0B401C8010E946B0FEB2DE4505A
:102C4000FF0BAF0160C08A33910509F45FC084F5C2
:102C500085339105B1F1C697D9F6C8010E948A0F54
:102C60005C01B601CE0189960E9441088BA59CA506
:102C7000ADA5BEA5892B8A2B8B2BB1F0EDA9FEA9A2
:102C80004080518062807380B601CE0183960E949D
:102C900041088DA19EA1AFA1B8A5A501481659066E
:102CA0006A067B0609F0B8CF44E050E0B60118C0D0
:102CB0008B33910509F440C08F3F910509F492CF01
:102CC000A7CFC8010E948A0FC8010E948A0F382E20
:102CD00089CFC8010E948A0F44E050E06FA978AD07
:102CE000C8010E946B0F7ECFC8010E948A0FB82EC8
:102CF00044E050E069AD7AADC8010E946B0F8B2DA6
:102D00008450990BAC0170E060E0EACFC8010E94EA
:102D10008A0F44E050E069A97AA9C8010E946B0FAC
:102D2000F70166A177A180A591A50E94022466A360
:102D300077A380A791A756CFC8010E948A0F44E0CD
:102D400050E06BA97CA9C8010E946B0FF70162A536
:102D500073A584A595A50E94022462A773A784A7E2
:102D600095A740CFC8010E948A0F44E050E06FA5AC
:102D700078A9C8010E946B0FF70162A173A184A119
:102D800095A10E94022462A373A384A395A366A7BE
:102D900077A780AB91AB26CF33243A94AACE2F925B
:102DA0003F924F925F926F927F928F929F92AF92DB
:102DB000BF92CF92DF92EF92FF920F931F93CF9328
:102DC000DF93CDB7DEB72A970FB6F894DEBF0FBEFC
:102DD000CDBF87ED94E00E94580989EA91E00E94F6
:102DE0002F070E94800668EE73E080E090E00E946A
:102DF00014028091B80381112AC01092A00310928E
:102E00009F0388EE93E0A0E0B0E08093A10390934D
:102E1000A203A093A303B093A4038FE291E0909345
:102E20009E0380939D038DE991E09093AC03809382
:102E3000AB031092AD031092AE031092AF03109249
:102E4000B00384E08093B50381E08093B8038AE502
:102E500093E0909359038093580380915703811115
:102E6000ADC060E372E080E090E00E941402DFB643
:102E7000F8940EE911E0E2EBEE2EE1E0FE2E8091F7
:102E80005603811125C0F8018491F7019491E82F30
:102E9000F0E0EE0FFF1FEE59FE4FA591B4918C911B
:102EA000982321F461E08AE00E94850161E08AE0D4
:102EB0000E94B3018CB580618CBD8CB580648CBDE3
:102EC00061E08DE00E94B30161E08BE00E94B301FC
:102ED000809156038F5F80935603DFBEF801049103
:102EE000E02FF0E0EE0FFF1FE459FE4F8591949123
:102EF0009093C3038093C203F701E490E092C1036F
:102F000061E08AE00E94B3010E947F0480E591E0C5
:102F10000E940A0184E38093F00380E80E944B053D
:102F20000E94D509882309F4A8C188E00E944B05B6
:102F30000E94C209883009F0A0C180E10E944B05BF
:102F40000E94C209803109F098C180E00E944B05BF
:102F50000E94C209182F811190C141E050E0BE01CA
:102F60006F5F7F4F8FE190E00E944D088981833031
:102F700009F083C180E48093C00342E06EE170E019
:102F8000812F0E94A70542E06FE170E0812F0E942F
:102F9000A7051F5F143089F740E06EE170E0812FD4
:102FA0000E94A70540E06FE170E0812F0E94A70515
:102FB0001F5F183089F781E08093570380E591E027
:102FC0000E940A0146E050E060E071E089E090E094
:102FD0000E949B048DE991E09A8389831B821C8265
:102FE0001D821E8244E050E0BE016D5F7F4F8FE086
:102FF00090E00E949B040091580310915903D8015E
:1030000092961D921D921D921C929597F80116A200
:1030100017A210A611A69A961D921D921D921C929F
:103020009D9780E69AEEA0E0B0E086AB97ABA0AFAC
:10303000B1AF80EA9FE0A0E0B0E082AF93AFA4AF71
:10304000B5AF3E9684E1DF011D928A95E9F786E0EF
:10305000E0E0F1E0D801189601900D928A95E1F731
:10306000F801EE5BFF4FFA87E98710820E943C1F50
:103070002FEC37E040E050E00E94FB22DC01CB0166
:103080000196A11DB11DF80184839583A683B783A2
:1030900080839183A283B3835801F3E4AF0EB11C04
:1030A000C5010E941D0964E470E0C5010E94860C00
:1030B000882309F44BC10E9446022B013C0148EED3
:1030C000C42E43E0D42EE12CF12C52E0252E912C7D
:1030D000812CA985BA858C918330B9F1811139C1D0
:1030E000F80184819581A681B7810196A11DB11D4A
:1030F00084839583A683B7830E9446026419750969
:1031000086099709A70196010E946423A90161E03D
:10311000C8010E94221481E0A985BA858C93F1E050
:103120008F169104B1F20E9446026419750986094E
:103130009709D801D6962D913D914D915C91D997E3
:10314000261737074807590710F6C5010E941D09C1
:10315000F80184819581A681B7810196A11DB11DD9
:1031600084839583A683B7830E944602F801FE9666
:1031700060837183828393838A94892809F0E6C0EF
:1031800080E591E00E940A010091580310915903D3
:10319000B801625F7F4FCE0101960E94410844E072
:1031A00050E0BE016D5F7F4F8FE090E00E949B0476
:1031B000B8016A5E7F4FCE0101960E94410844E04B
:1031C00050E0BE016D5F7F4F81E090E00E949B0464
:1031D000B8016E5E7F4FCE0101960E94410844E027
:1031E00050E0BE016D5F7F4F85E090E00E949B0440
:1031F000B801625E7F4FCE0101960E9441088B812B
:103200009C81AD81BE818093AE049093AF04A09366
:10321000B004B093B1040E94EF017F738091190153
:1032200090911A016827792770931A016093190108
:103230008AEC91E00E942F070E94800668EE73E0FE
:1032400080E090E00E9414022A960FB6F894DEBF48
:103250000FBECDBFDF91CF911F910F91FF90EF90E7
:10326000DF90CF90BF90AF909F908F907F906F90A6
:103270005F904F903F902F90089587E38093F003E5
:1032800080E80E944B050E94D509882329F188E037
:103290000E944B050E94C2098830F1F480E10E942F
:1032A0004B050E94C209182F8031B1F480E00E94C2
:1032B0004B050E94C20981110FC041E050E0BE01E0
:1032C0006F5F7F4F89E390E00E944D0889818430D1
:1032D00019F41093C0036FCE83E38093F00380E86A
:1032E0000E944B050E94D509882371F180E10E945C
:1032F0004B050E94C209803139F582E10E944B05DD
:103300000E94C209823101F580E00E944B050E94B3
:10331000C209811119C084E08093C00315E51887A4
:1033200041E050E0BE01685F7F4F8BE190E00E947A
:103330009B041F8341E050E0BE01695F7F4F8AE13B
:1033400090E00E949B0437CE1092F00382EF91E050
:1033500071CF8430F9F4F80184819581A681B78119
:103360000196A11DB11D84839583A683B7830E9416
:1033700046026419750986099709A70196010E94FA
:103380006423A90163E0C8010E942214A985BA85BB
:103390002C92C5CE813059F5F80142AD53AD64ADE4
:1033A00075AD9E012F5F3F4FC8010E943015382E2A
:1033B000F2E08F1392C089819A81AB81BC81F801C0
:1033C00084839583A683B7830E9446026419750996
:1033D00086099709A70196010E946423A90163E069
:1033E000C8010E942214A985BA853C9298CE8230E9
:1033F00009F095CEF80142AD53AD64AD75AD9E01B7
:103400002F5F3F4FC8010E943015382EF5E08F1313
:103410005DC0E3E0A985BA85EC93F80182A193A190
:10342000A4A1B5A1892B8A2B8B2B41F484E893E0CE
:10343000A0E0B0E082A393A3A4A3B5A3F80186A162
:1034400097A1A0A5B1A5892B8A2B8B2B61F482A112
:1034500093A1A4A1B5A1B695A7959795879586A3A5
:1034600097A3A0A7B1A7F80182A593A5A4A5B5A588
:10347000892B8A2B8B2BA9F482A193A1A4A1B5A19E
:10348000AC01BD0123E076956795579547952A9540
:10349000D1F7841B950BA60BB70B82A793A7A4A704
:1034A000B5A7F80186A197A1A0A5B1A586A797A762
:1034B000A0ABB1AB82A593A5A4A5B5A582AB93ABF8
:1034C000A4ABB5AB88248394912C29CEF6E08F135E
:1034D00004C0A985BA851C9222CEBFEF3B121FCE35
:1034E000E985FA8510821BCE1F920F920FB60F92BC
:1034F00011242F933F938F939F93AF93BF9380910A
:10350000CC039091CD03A091CE03B091CF03309125
:10351000CB0323E0230F2D3758F50196A11DB11DD4
:103520002093CB038093CC039093CD03A093CE0341
:10353000B093CF038091D0039091D103A091D20397
:10354000B091D3030196A11DB11D8093D003909338
:10355000D103A093D203B093D303BF91AF919F91B6
:103560008F913F912F910F900FBE0F901F90189544
:1035700026E8230F0296A11DB11DD2CF1F920F92F4
:103580000FB60F9211242F933F934F935F936F9336
:103590007F938F939F93AF93BF93EF93FF9381EFAD
:1035A00093E00E94D603FF91EF91BF91AF919F915D
:1035B0008F917F916F915F914F913F912F910F90DC
:1035C0000FBE0F901F9018951F920F920FB60F927B
:1035D00011242F938F939F93EF93FF93E091010416
:1035E000F09102048081E0910704F091080482FDCB
:1035F0001BC0908180910A048F5F8F7320910B0410
:10360000821741F0E0910A04F0E0EF50FC4F958FF3
:1036100080930A04FF91EF919F918F912F910F90CA
:103620000FBE0F901F9018958081F4CFCF92DF923C
:10363000EF92FF92E1EFF3E01382128288EEC82E40
:1036400083E0D82EE12CF12CC482D582E682F78269
:1036500089E591E09183808385EC90E0958784876C
:1036600084EC90E09787868780EC90E0918B808B4C
:1036700081EC90E0938B828B82EC90E0958B848B35
:1036800086EC90E0978B868B118E128E138E148EA3
:10369000EEE8F4E08DE991E0918380831282138259
:1036A00014821582E4E9F4E091838083128213820C
:1036B00014821582EAE9F4E09183808312821382F6
:1036C00014821582E0EAF4E09183808312821382EF
:1036D00014821582E6EAF4E09183808312821382D9
:1036E00014821582E2EBF4E09183808312821382CC
:1036F00014821582ECEAF4E09183808312821382B3
:1037000014821582E8EBF4E09183808312821382A5
:1037100014821582EEEBF4E091838083128213828F
:1037200014821582ECEEF4E091838083128213827E
:10373000148215826AE172E086EE94E00E943008FD
:10374000E7EDF4E013821282C482D582E682F7822A
:103750008BE691E09183808384E0848788EE93E018
:1037600096878587A4ECB4E082E015968C93159734
:1037700086E116968C931697EAEAF1E0E4911796A3
:10378000EC931797E6E9F1E0E4911896EC9318971B
:1037900040E85EE360E070E01D964D935D936D93AD
:1037A0007C935097FF90EF90DF90CF900895CF9348
:1037B000DF93CDB7DEB7C554D1090FB6F894DEBF9D
:1037C0000FBECDBF789484B5826084BD84B581601E
:1037D00084BD85B5826085BD85B5816085BD8091DC
:1037E0006E00816080936E00109281008091810054
:1037F000826080938100809181008160809381004C
:10380000809180008160809380008091B10084600D
:103810008093B1008091B00081608093B00080916E
:103820007A00846080937A0080917A00826080932D
:103830007A0080917A00816080937A0080917A008A
:10384000806880937A001092C100E0910104F091A9
:10385000020482E08083E091FD03F091FE03108278
:10386000E091FF03F091000480E18083109209044D
:10387000E0910504F091060486E08083E091030462
:10388000F0910404808180618083E0910304F091D1
:103890000404808188608083E0910304F091040433
:1038A000808180688083E0910304F091040480812A
:1038B0008F7D80830E94CF1660E083E00E94B30179
:1038C00062E08091C9040E94B3010E944602605DDB
:1038D0007740810991096093CD047093CE04809361
:1038E000CF049093D00487E38093D6047E0128E22E
:1038F000E20EF11C59E7C52E51E0D52E2BEA822E9F
:1039000021E0922E37E9632E31E0732E40E0A42EA1
:1039100040E0B42E80E480937C0080917A00806443
:1039200080937A0080917A0086FDFCCF60917800C8
:1039300070917900CE01805C9F4F0E94F8070E9431
:103940005202882341F08091CA048C3009F49FC14F
:1039500038F48B30F1F060E070E080EC9FE741C01C
:1039600085518230C0F71091C604612F70E0762F28
:10397000662766277F778091C704682B90E080E0F8
:103980000E9400222DEC3CEC4CEC5DE30E943D22B9
:103990009AC16091C60470E090E080E00E9400222D
:1039A0001B012C011091C70417FF0AC0AC019B0139
:1039B00060E070E080E89FEB0E9495231B012C01E2
:1039C0001F70612F70E090E080E00E9402222DECD9
:1039D0003CEC4CEC5DE30E943D22A20191010E946F
:1039E00096231BAE1AAE1DAE1CAE1FAE1EAE8E01D0
:1039F0000F5F1F4F22E044E00E94D21E009709F49F
:103A000066C1FC0101900020E9F73197AF01481B26
:103A1000590BBC01CE01CA960E94D707F6018491CA
:103A2000F4011491F301049160E070E0002389F047
:103A300081110E945C01E02FF0E0EE0FFF1FE657BE
:103A4000FE4FA591B4918C91182361E070E009F4C8
:103A500060E0CE01C4960E94F80787ED94E00E94D2
:103A6000920E892B49F087ED94E00E947013682F25
:103A700081EF93E00E94F80387ED94E00E943609FD
:103A800081110EC08091CA03882351F08BE292E02D
:103A90000E942F070E94800687ED94E00E9458093B
:103AA00087ED94E00E9436098111C6C00E9446024B
:103AB0000091C6031091C7032091C8033091C90338
:103AC000601B710B820B930B61387E43810591055E
:103AD00008F4B2C06BE372E0CE018E960E9430080B
:103AE000BE01605C7F4FCE018E960E94C40763E4E6
:103AF00072E00E94AE07BE01665C7F4F0E94C40761
:103B00006CE472E00E94AE07BE016C5C7F4F0E94C5
:103B1000C40719A618A61BA61AA61DA61CA68E15B4
:103B20009F0559F0FC01608171816115710529F0D3
:103B300044815581C7010E94D70740E550E066E007
:103B400071E087ED94E00E94E512892B09F4F0C042
:103B500065E572E087ED94E00E9471066CE672E024
:103B600087ED94E00E94710666E872E087ED94E0CC
:103B70000E94710669E972E0CE0101960E94300848
:103B800066EE74E0CE0101960E94C40761EF72E018
:103B90000E94AE07FC01448155816081718187EDEF
:103BA00094E00E94D00DCE0101960E9450076EEA6B
:103BB00072E087ED94E00E9471066FED72E087ED90
:103BC00094E00E9471064CA55DA570E060E02AE0DB
:103BD00087ED94E00E94990660EF72E087ED94E033
:103BE0000E9471064CA55DA568A579A587ED94E0B6
:103BF0000E94D00D0E9446026093C6037093C703D3
:103C00008093C8039093C90387ED94E00E9436091E
:103C1000882309F461C083EF92E00E942F070E947D
:103C200080061092C5031092C403C7010E9450077A
:103C3000CE018E960E9450078091C4039091C503D7
:103C4000049714F00E94CF1687ED94E00E94360985
:103C500091E0811101C090E09093CA03CE01C49617
:103C60000E945007CE01CA960E945007CE01805C88
:103C70009F4F0E945007A114B10409F44BCE0E943B
:103C8000C203882309F43ACE0E94000033CE10917B
:103C9000C604612F70E090E080E00E9400221B01CA
:103CA0002C016091C7046F7070E090E080E00E948A
:103CB00002222DEC3CEC4CEC5DE30E943D22A20183
:103CC00091010E94962317FF8CCE90588ACECE0188
:103CD000CA960E943E07A2CE6091C4037091C503AC
:103CE0006F5F7F4F7093C5036093C403CE0101964D
:103CF0000E94F8076FE073E0CE0182960E943008C0
:103D0000BE016F5F7F4FCE0182960E94C40761E3C0
:103D100073E00E94AE070E948606CE0182960E9442
:103D20005007CE0101960E9450070E9480067DCF69
:103D30006091C4037091C5036F5F7F4F7093C5039B
:103D40006093C403CE0101960E94F80763E373E019
:103D5000CE0182960E943008BE016F5F7F4FCE0178
:103D600082960E94C40761E373E00E94AE070E943E
:103D70008606CE0182960E945007CE0101960E94CF
:103D800050070E9480060E9446026093C60370930B
:103D9000C7038093C8039093C90347CF86EE94E08E
:103DA0000C945007EF920F931F93CF93DF93E8018A
:103DB00034E047FD34E1042E000C550B57FF03C0DF
:103DC000519541955109E32E022F242FAE010E94F7
:103DD000B91FCE01DF91CF911F910F91EF90089500
:103DE0008F929F92AF92BF92CF92DF92EF92FF920B
:103DF000CF93DF93EC01688179818A819B81611582
:103E000071058105910521F464E279ED8BE597E078
:103E10002DE133EF41E050E00E94FB2249015A01BD
:103E20009B01AC01A7EAB1E40E941A236B017C015B
:103E3000ACEEB4EFA50194010E942823C60ED71E54
:103E4000E81EF91EF7FE06C081E0C81AD108E10895
:103E500080E8F80AC882D982EA82FB82C701B601EB
:103E60009F77DF91CF91FF90EF90DF90CF90BF9041
:103E7000AF909F908F9008958F929F92AF92BF9234
:103E8000CF92DF92EF92FF9260911B0170911C0123
:103E900080911D0190911E016115710581059105AB
:103EA00021F464E279ED8BE597E02DE133EF41E019
:103EB00050E00E94FB2249015A019B01AC01A7EA94
:103EC000B1E40E941A236B017C01ACEEB4EFA501B2
:103ED00094010E942823C60ED71EE81EF91EF7FE85
:103EE00006C081E0C81AD108E10880E8F80AC0924B
:103EF0001B01D0921C01E0921D01F0921E01C7012E
:103F0000B6019F77FF90EF90DF90CF90BF90AF907A
:103F10009F908F90089560931B0170931C01809374
:103F20001D0190931E010895BB274A3031F4992357
:103F300022F4BDE2909581959F4F0C94A01FBB2762
:103F4000FB015527AA27880F991FAA1FA41710F055
:103F5000A41B83955051B9F7A05DAA3308F0A95D61
:103F6000A193009779F7B111B1931192CB010C9401
:103F7000F021A9E0B0E0EFEBFFE10C9433236A01FC
:103F8000F22EB02E102FFBE3AF2EA01608F41BE389
:103F90001F5F012F27E0AE014F5F5F4F0E94182186
:103FA000BC018981982F9970913009F43FC09BE240
:103FB000E1FC04C09E2D9170E0FC3AC05E2D507172
:103FC000E82FE87083FF46C084E0911101C083E0D0
:103FD000EF2DE81B8F1508F0E0E0D6018E2F20E2D0
:103FE000552351F1992329F0D6019C93C6010196DE
:103FF0006C0196012D5F3F4FE2FE24C08EE4D60196
:104000008C9391E411969C93119712968C93D901FD
:104010008E2F90E281111BC0E20FF32FF11D108251
:104020008EEF9FEF2996ECE00C944F239DE2C6CFD4
:1040300090E2C4CF2D9381508111FCCFCE0ED11CC4
:10404000E0E0D0CF8EE6D6018C9391E6DBCF9D9356
:104050008150E0CF482F447082FF3DC084E0911131
:1040600001C083E08F1510F4EF2DE81BD6018E2FD1
:1040700020E2552309F1992329F0D6019C93C6012A
:1040800001966C0196012D5F3F4FE2FE1BC089E453
:10409000D6018C938EE411968C93119786E4129638
:1040A0008C93D9018E2F90E2882309F4B5CF9D938C
:1040B0008150FACF2D9381508111FCCFCE0ED11CAF
:1040C000E0E0D9CF89E6D6018C938EE611968C93E9
:1040D000119786E6E4CF9B0177FF02C030E020E035
:1040E000A1E0B0E0911102C0B0E0A0E0F90131968A
:1040F000AE0FBF1F8B2C912CBB2009F461C0540163
:10410000EFEFAE1ABE0AAA0DBB1DFA161B0619F078
:1041100014F04F2D4A1B511188C0E3FC59C07601A1
:10412000A42FB0E2A1114FC0C40ED11C992309F4F1
:104130005BC040E0D6011196F60190836D015523D6
:1041400009F448C0012F060F9A81582F507184FF3F
:1041500003C0913309F4015010160CF047C0093028
:1041600008F008E0EEE2FE2E5B01A01AB10885011E
:104170009194819491082F3F320729F4D601FC9243
:10418000F60131966F016217730794F10217130756
:104190007CF5DB01A21BB30BAA24A394B12CAC0EBB
:1041A000BD1EAA0DBB1D11968C9121503109D6015F
:1041B000119628153905F4F0F60180836D01DBCFE7
:1041C000B12CA12CA0CFF701B1937F01A150AACFB0
:1041D0009111B0CFD601942F50E302C05D9391505E
:1041E0009111FCCFC40ED11C40E0ACCF01E0BACF9E
:1041F00080E3DBCF6217730731F4963388F495338D
:1042000011F4552369F0F6018083FD01842F90E2BB
:10421000811108C0A40FB11D1C9290E080E002CF74
:1042200081E3F1CF91938150F3CF911183CF8ACF66
:10423000283008F027E03327DA01990F311D87FD78
:10424000916000966105710539F432602E5F3D93EF
:1042500030E32A95E1F708959F3F30F080387105EB
:10426000610509F03C5F3C5F3D93913008F0806848
:10427000911DDF93CF931F930F93FF92EF92192F0E
:10428000987F9695E92F96959695E90FFF27EE531F
:10429000FF4F99273327EE24FF24A701E70105905C
:1042A0000894079428F4360FE71EF81E491F511D85
:1042B000660F771F881F991F0694A1F70590079432
:1042C00028F4E70EF81E491F561FC11D770F881FDF
:1042D000991F661F0694A1F70590079428F4F80E1D
:1042E000491F561FC71FD11D880F991F661F771FB3
:1042F0000694A1F70590079420F4490F561FC71F95
:10430000D81F990F661F771F881F0694A9F78491FD
:104310001095177041F0D695C79557954795F79426
:10432000E7941A95C1F7E8E6F0E0689415901591C6
:1043300035916591959105907FE27395E118F10AA9
:10434000430B560BC90BD009C0F7E10CF11E431FFC
:10435000561FC91FD01D7EF4703311F48A95E6CF25
:10436000E894015030F0080F0AF40027021708F40F
:10437000202F2395022F7A3328F079E37D932A9515
:10438000E9F710C07D932A9589F60694979567956D
:10439000379517951794E118F10A430B560BC90B83
:1043A000D00998F023957E9173957A3308F070E3E5
:1043B0007C932013B8F77E9170617D9330F08395E4
:1043C00071E37D9370E32A95E1F71124EF90FF905C
:1043D0000F911F91CF91DF91992787FD90950895B7
:1043E000DC01FC01672F71917723E1F7329704C05C
:1043F0007C916D9370836291AE17BF07C8F30895E7
:10440000E89409C097FB3EF490958095709561956E
:104410007F4F8F4F9F4F9923A9F0F92F96E9BB2724
:104420009395F695879577956795B795F111F8CFA0
:10443000FAF4BB0F11F460FF1BC06F5F7F4F8F4F0B
:104440009F4F16C0882311F096E911C0772321F001
:104450009EE8872F762F05C0662371F096E8862F99
:1044600070E060E02AF09A95660F771F881FDAF7F0
:10447000880F9695879597F908950E9450220C947D
:10448000C1220E94B32238F00E94BA2220F0952364
:1044900011F00C94AA220C94B02211240C94F52251
:1044A0000E94D22270F3959FC1F3950F50E0551FE3
:1044B000629FF001729FBB27F00DB11D639FAA2779
:1044C000F00DB11DAA1F649F6627B00DA11D661FC8
:1044D000829F2227B00DA11D621F739FB00DA11DE9
:1044E000621F839FA00D611D221F749F3327A00DA3
:1044F000611D231F849F600D211D822F762F6A2F3F
:1045000011249F5750409AF0F1F088234AF0EE0FA3
:10451000FF1FBB1F661F771F881F91505040A9F7D0
:104520009E3F510580F00C94AA220C94F5225F3F27
:10453000E4F3983ED4F3869577956795B795F7950C
:10454000E7959F5FC1F7FE2B880F911D9695879584
:1045500097F9089597F99F6780E870E060E0089503
:104560009FEF80EC089500240A941616170618068B
:104570000906089500240A94121613061406050667
:104580000895092E0394000C11F4882352F0BB0FF8
:1045900040F4BF2B11F460FF04C06F5F7F4F8F4F5B
:1045A0009F4F089557FD9058440F551F59F05F3F96
:1045B00071F04795880F97FB991F61F09F3F79F045
:1045C00087950895121613061406551FF2CF4695C7
:1045D000F1DF08C0161617061806991FF1CF869549
:1045E0007105610508940895E894BB27662777272D
:1045F000CB0197F90895052E97FB1EF400940E94B5
:10460000122357FD07D00E94642307FC03D04EF409
:104610000C94122350954095309521953F4F4F4F64
:104620005F4F089590958095709561957F4F8F4F5E
:104630009F4F08950E948623A59F900DB49F900DD3
:10464000A49F800D911D11240895B7FF0C941A2387
:104650000E941A23821B930B08952F923F924F9230
:104660005F926F927F928F929F92AF92BF92CF9202
:10467000DF92EF92FF920F931F93CF93DF93CDB70B
:10468000DEB7CA1BDB0B0FB6F894DEBF0FBECDBF83
:1046900009942A88398848885F846E847D848C8454
:1046A0009B84AA84B984C884DF80EE80FD800C815D
:1046B0001B81AA81B981CE0FD11D0FB6F894DEBF40
:1046C0000FBECDBFED010895A1E21A2EAA1BBB1BA0
:1046D000FD010DC0AA1FBB1FEE1FFF1FA217B307CE
:1046E000E407F50720F0A21BB30BE40BF50B661FE4
:1046F000771F881F991F1A9469F7609570958095A8
:1047000090959B01AC01BD01CF010895A29FB0011E
:10471000B39FC001A39F700D811D1124911DB29FF5
:10472000700D811D1124911D08955058BB27AA2793
:104730000E94AD230C94C1220E94B32238F00E9443
:10474000BA2220F039F49F3F19F426F40C94B022D9
:104750000EF4E095E7FB0C94AA22E92F0E94D222E6
:1047600058F3BA17620773078407950720F079F4A6
:10477000A6F50C94F4220EF4E0950B2EBA2FA02D82
:104780000B01B90190010C01CA01A0011124FF27FE
:10479000591B99F0593F50F4503E68F11A16F040F9
:1047A000A22F232F342F4427585FF3CF46953795F8
:1047B0002795A795F0405395C9F77EF41F16BA0BBD
:1047C000620B730B840BBAF09150A1F0FF0FBB1F6B
:1047D000661F771F881FC2F70EC0BA0F621F731FB4
:1047E000841F48F4879577956795B795F7959E3F11
:1047F00008F0B0CF9395880F08F09927EE0F9795A2
:104800008795089569279627692778278727782726
:104810000895EE0FFF1F0590F491E02D09940F937A
:104820001F93CF93DF938230910510F482E090E0E4
:10483000E091F404F091F50430E020E0B0E0A0E075
:10484000309799F42115310509F44AC0281B390B1A
:1048500024303105D8F58A819B816115710589F174
:10486000FB0193838283FE0111C04081518102814B
:10487000138148175907E0F04817590799F4109722
:1048800061F012960C93129713961C933296CF01F7
:10489000DF91CF911F910F9108950093F40410932D
:1048A000F504F4CF2115310551F04217530738F0C4
:1048B000A901DB019A01BD01DF01F801C1CFEF01C0
:1048C000F9CF9093F5048093F404CDCFFE01E20F6D
:1048D000F31F819391932250310939832883D7CFD5
:1048E0002091F2043091F304232B41F42091210113
:1048F000309122013093F3042093F20420911F01A0
:10490000309120012115310541F42DB73EB740917A
:10491000230150912401241B350BE091F204F09106
:10492000F304E217F307A0F42E1B3F0B28173907F7
:1049300078F0AC014E5F5F4F2417350748F04E0FFB
:104940005F1F5093F3044093F204819391939FCFA0
:10495000F0E0E0E09CCFCF93DF930097E9F0FC011B
:10496000329713821282A091F404B091F504ED0104
:1049700030E020E01097A1F420813181820F931F55
:104980002091F2043091F3042817390709F061C02F
:10499000F093F304E093F204DF91CF910895EA01DC
:1049A000CE17DF07E8F54A815B819E01411551056D
:1049B000B1F7E901FB83EA8349915991C40FD51FEF
:1049C000EC17FD0761F4808191810296840F951F99
:1049D000E90199838883828193819B838A83F0E0B4
:1049E000E0E012968D919C9113970097B9F52D9167
:1049F0003C911197CD010296820F931F2091F204F2
:104A00003091F3042817390739F6309751F5109291
:104A1000F5041092F404B093F304A093F204BCCF15
:104A2000D383C28340815181840F951FC817D90752
:104A300061F44E5F5F4F88819981480F591F518300
:104A400040838A819B81938382832115310509F0FC
:104A5000B0CFF093F504E093F4049ECFFD01DC01A8
:104A6000C0CF13821282D7CFB0E0A0E0EAE3F5E234
:104A70000C942F238C01009751F4CB010E940F243A
:104A80008C01C801CDB7DEB7E0E10C944B23FC01EB
:104A9000E60FF71F9C0122503109E217F30708F4D3
:104AA0009DC0D901CD91DC911197C617D70798F019
:104AB000C530D10530F3CE0104978617970708F368
:104AC000C61BD70B2297C193D1936D937C93CF01D3
:104AD0000E94AB24D6CF5B01AC1ABD0A4C018C0EF0
:104AE0009D1EA091F404B091F504512C412CF12CA1
:104AF000E12C109731F58091F2049091F304881520
:104B0000990509F05CC04616570608F058C0809118
:104B10001F0190912001009741F48DB79EB74091FD
:104B2000230150912401841B950BE817F90708F025
:104B300055C0F093F304E093F204F90171836083AC
:104B4000A0CF8D919C91119712966C90129713960D
:104B50007C901397A815B90559F56C0142E0C40E75
:104B6000D11CCA14DB0420F1AC014A195B09DA013B
:104B70001296159780F06282738251834083D90127
:104B80006D937C93E114F10471F0D7011396FC93BB
:104B9000EE93129776CF22968C0F9D1FF901918389
:104BA0008083F301EFCFF093F504E093F40469CF31
:104BB0004816590608F42C017D01D3019ACFCB0188
:104BC0000E940F247C01009749F0AE01B8010E94B9
:104BD000FE25C8010E94AB24870153CF10E000E0FE
:104BE00050CFFB01DC0104C08D910190801921F4AC
:104BF00041505040C8F7881B990B0895FB01DC0118
:104C000002C001900D9241505040D8F70895DC0148
:104C100001C06D9341505040E0F70895FB01DC0165
:104C200001900D920020E1F7089510E0CFEDD0E063
:104C300004C0FE010E9409242196C03ED107C9F795
:104C4000F894FFCFD428B2FFA0A16170692E7468D8
:104C5000696E67737065616B2E636F6D0000C001D4
:104C60000000000000F604800001005E000000006B
:104C7000000000C405960D520611010D018A0F11A6
:104C80000A860C210B1D09FC0572129109B40F6BE9
:104C90000F4B063B063706330600000000F80358AA
:104CA0000385034504B6039403A80300000000E550
:104CB00005D00D8D0D780D920E7013200A040CE5B1
:104CC000128A135809360968067006580765066384
:104CD00006DA055906F813BD1393135506000000B4
:104CE00000E5060D0A0057495A6E657400436F6E61
:104CF0006E656374696E672041726475696E6F20BA
:104D0000746F206E6574776F726B2E2E2E00417259
:104D10006475696E6F20636F6E6E65637465642081
:104D2000746F206E6574776F726B207573696E6730
:104D300020444843500044484350204661696C6514
:104D4000642C2072657365742041726475696E6F9E
:104D500020746F2074727920616761696E005A4413
:104D6000414B53324B455151483835495336002E4B
:104D70002E2E646973636F6E6E656374656400667E
:104D800069656C64313D00266669656C64323D007E
:104D9000266669656C64333D00504F5354202F756F
:104DA000706461746520485454502F312E310A00CC
:104DB000486F73743A206170692E7468696E677306
:104DC0007065616B2E636F6D0A00436F6E6E656375
:104DD00074696F6E3A20636C6F73650A00582D54C6
:104DE00048494E47535045414B4150494B45593A2C
:104DF0002000436F6E74656E742D547970653A208F
:104E00006170706C69636174696F6E2F782D77774C
:104E1000772D666F726D2D75726C656E636F64654C
:104E2000640A00436F6E74656E742D4C656E677412
:104E3000683A20000A0A00436F6E6E656374696EFB
:104E40006720746F205468696E67537065616B2EBC
:104E50002E2E00436F6E6E656374696F6E20746FE3
:104E6000205468696E67537065616B206661696C78
:104E700065642028002900436F6E6E656374696F56
:104E80006E20746F205468696E67537065616B2083
:104E90004661696C656420280000FFFFFFFFFFFF8B
:104EA000FFFFFFFFFFFFFFFFFFFFFFFFFFFFFFFF12
:104EB000FFFFFFFFFFFFFFFFFFFFFFFFFFFFFFFF02
:104EC000FFFFFFFFFFFFFFFFFFFFFFFFFFFFFFFFF2
:104ED000FFFFFFFFFFFFFFFFFFFFFFFFFFFFFFFFE2
:02000004008179
:00000001FF
